:100000000C945D000C9485000C9485000C94850084
:100010000C9485000C9485000C9485000C9485004C
:100020000C9485000C9485000C9485000C9485003C
:100030000C9485000C9485000C9485000C9485002C
:100040000C943E030C9485000C9485000C94850060
:100050000C9485000C9485000C9485000C9485000C
:100060000C9485000C94850000000008000201003B
:100070000003040700000000000000000102040863
:100080001020408001020408102001020408102002
:10009000040404040404040402020202020203032E
:1000A0000303030300000000250028002B000000CC
:1000B0000000240027002A00B10111241FBECFEF49
:1000C000D8E0DEBFCDBF11E0A0E0B1E0E4EEFBE0A0
:1000D00002C005900D92AC32B107D9F721E0ACE235
:1000E000B1E001C01D92A135B207E1F710E0CAEB03
:1000F000D0E004C02297FE010E94EC05C83BD10766
:10010000C9F70E94B8050C94F0050C940000811109
:100110000FC060E00E947B0460E081E00E947B04ED
:1001200060E086E00E947B0460E087E00C947B0442
:1001300084E690E0841B950B4AE0489F9001499F1C
:10014000300D112430932D0120932C01662309F4E6
:100150005DC061E080E00E947B0460E081E00E947D
:100160007B0460E086E00E947B0460E087E00E9400
:100170007B0460912C0170912D01882777FD80957B
:10018000982F0E94AB0360E080E00E947B0461E056
:1001900081E00E947B0460E086E00E947B0460E0D6
:1001A00087E00E947B0460912C0170912D018827CB
:1001B00077FD8095982F0E94AB0360E080E00E945D
:1001C0007B0460E081E00E947B0461E086E00E94A5
:1001D0007B0460E087E00E947B0460912C017091B9
:1001E0002D01882777FD8095982F0E94AB0360E052
:1001F00080E00E947B0460E081E00E947B0460E07C
:1002000086E00E947B0461E087E05CC061E087E0FB
:100210000E947B0460E086E00E947B0460E081E055
:100220000E947B0460E080E00E947B0460912C01CE
:1002300070912D01882777FD8095982F0E94AB0340
:1002400060E087E00E947B0461E086E00E947B041E
:1002500060E081E00E947B0460E080E00E947B041B
:1002600060912C0170912D01882777FD8095982F42
:100270000E94AB0360E087E00E947B0460E086E0C0
:100280000E947B0461E081E00E947B0460E080E0EA
:100290000E947B0460912C0170912D01882777FDCD
:1002A0008095982F0E94AB0360E087E00E947B045A
:1002B00060E086E00E947B0460E081E00E947B04B5
:1002C00061E080E00E947B0460912C0170912D011F
:1002D000882777FD8095982F0E94AB0380912E018F
:1002E00090912F01019690932F0180932E010895F4
:1002F00061E080E00E94420461E081E00E944204EB
:1003000061E086E00E94420461E087E00E944204CE
:1003100020E042E060E180E391E00E947A0260E048
:1003200071E080E391E00C94EF042FE030E040E0D6
:1003300050E061E081E00E94870041E060E080E3FE
:1003400091E00E94600260912E0170912F014AE0BD
:1003500050E080E391E00E949F0580E391E00C94DF
:100360007202CF92EF920F9382E0C82E93E0E92EB3
:1003700004E025E04BE06CE080E391E00E9418038C
:100380000F91EF90CF900895CF93DF93EC0160E051
:100390008E810E947B0481E090E00E94D30361E0A3
:1003A0008E810E947B0481E090E00E94D30360E094
:1003B0008E810E947B0484E690E0DF91CF910C94C3
:1003C000D303EF92FF920F931F93CF93DF938C0190
:1003D000C0E0D0E0E62EF12CB7010C2E02C07595DE
:1003E00067950A94E2F76170F801EC0FFD1F8781B1
:1003F0000E947B042196C430D10571F7C801DF91BA
:10040000CF911F910F91FF90EF900C94C401EF9248
:10041000FF920F931F93CF93DF938C01C0E0D0E046
:10042000E62EF12CB7010C2E02C0759567950A9443
:10043000E2F76170F801EC0FFD1F87810E947B04D9
:100440002196C830D10571F7C801DF91CF911F9176
:100450000F91FF90EF900C94C4011F93CF93DF9303
:10046000EC01162F642F8C810E947B048D818F3FBD
:1004700019F060E00E947B048F85612F84FF06C025
:10048000CE01DF91CF911F910C94070270E084E0C0
:10049000759567958A95E1F7CE010E94E101612F7C
:1004A000CE01DF91CF911F910C94E10140E00C94BB
:1004B0002D0261E00E94560280ED97E00C94D30378
:1004C000443008F043E0FC012389421710F04FEF5D
:1004D000420FFC01E40FF11D2489260F2068622FD2
:1004E0000C945602FC016089262F2460208B6C60DE
:1004F0000C9456020F931F93CF93DF93EC0142307D
:1005000018F08F8588608F874B8B1C8A80E48D8BD9
:100510006E8B70E0605C7F4F6F8B222329F041303F
:1005200019F48F8584608F8761E08C810E9442047A
:100530008D818F3F19F061E00E94420461E08E815D
:100540000E94420400E010E08F8584FF03C088E031
:1005500090E002C084E090E00817190754F4FE010F
:10056000E00FF11F61E087810E9442040F5F1F4F7F
:10057000EBCF80E593EC0E94D30360E08C810E9476
:100580007B0460E08E810E947B048D818F3F19F097
:1005900060E00E947B046F8564FD1DC063E0CE01B6
:1005A0000E94E10184E991E10E94D30363E0CE015E
:1005B0000E94E10184E991E10E94D30363E0CE014E
:1005C0000E94E10186E990E00E94D30362E0CE013F
:1005D0000E94E10116C06062CE010E94560284E9C9
:1005E00091E10E94D3036F856062CE010E945602A2
:1005F00086E990E00E94D3036F856062CE010E947D
:1006000056026F856062CE010E94560284E0888B9C
:10061000CE010E947202CE010E94590282E0898BB3
:1006200066E0CE01DF91CF911F910F910C9456029D
:10063000CF92EF920F93FC011382128286E191E038
:100640009183808364838FEF85834683278300872C
:10065000E186C2861386148615861686178620E0E4
:1006600041E060E1CF010F91EF90CF900C947A02BE
:1006700041E00E942D0281E090E008951F920F92C8
:100680000FB60F9211242F933F938F939F93AF93A5
:10069000BF938091490190914A01A0914B01B09183
:1006A0004C013091480123E0230F2D3720F40196AF
:1006B000A11DB11D05C026E8230F0296A11DB11D85
:1006C000209348018093490190934A01A0934B01E4
:1006D000B0934C0180914D0190914E01A0914F013A
:1006E000B09150010196A11DB11D80934D019093D1
:1006F0004E01A0934F01B0935001BF91AF919F91D4
:100700008F913F912F910F900FBE0F901F901895D2
:100710003FB7F89480914D0190914E01A0914F0107
:10072000B091500126B5A89B05C02F3F19F0019646
:10073000A11DB11D3FBF6627782F892F9A2F620F09
:10074000711D811D911D42E0660F771F881F991F43
:100750004A95D1F70895CF92DF92EF92FF92CF930F
:10076000DF936B017C010E948803EB01C114D1046B
:10077000E104F10489F00E94C7050E9488036C1B04
:100780007D0B683E734090F381E0C81AD108E10800
:10079000F108C851DC4FEACFDF91CF91FF90EF9085
:1007A000DF90CF9008958230910538F0880F991F1F
:1007B000880F991F05970197F1F70895789484B5EC
:1007C000826084BD84B5816084BD85B5826085BD4D
:1007D00085B5816085BDEEE6F0E080818160808333
:1007E000E1E8F0E010828081826080838081816016
:1007F0008083E0E8F0E0808181608083E1EBF0E0DD
:10080000808184608083E0EBF0E080818160808380
:10081000EAE7F0E080818460808380818260808369
:100820008081816080838081806880831092C10094
:100830000895833081F028F4813099F08230A1F05E
:1008400008958730A9F08830B9F08430D1F48091D0
:1008500080008F7D03C0809180008F77809380001F
:10086000089584B58F7702C084B58F7D84BD0895C7
:100870008091B0008F7703C08091B0008F7D80930E
:10088000B0000895CF93DF9390E0FC01E458FF4F50
:100890002491FC01E057FF4F8491882349F190E0B7
:1008A000880F991FFC01E255FF4FA591B4918C551B
:1008B0009F4FFC01C591D4919FB7611108C0F89476
:1008C0008C91209582238C93888182230AC0623088
:1008D00051F4F8948C91322F309583238C93888136
:1008E000822B888304C0F8948C91822B8C939FBFB9
:1008F000DF91CF9108950F931F93CF93DF931F92B2
:10090000CDB7DEB7282F30E0F901E859FF4F8491C9
:10091000F901E458FF4F1491F901E057FF4F04919A
:100920000023C9F0882321F069830E94190469819A
:10093000E02FF0E0EE0FFF1FEC55FF4FA591B491B3
:100940009FB7F8948C91611103C01095812301C069
:10095000812B8C939FBF0F90DF91CF911F910F91AF
:100960000895CF92DF92EF92FF920F931F93CF9350
:10097000DF937C016A01EB0100E010E00C151D051E
:1009800071F06991D701ED91FC910190F081E02D1A
:10099000C7010995892B19F00F5F1F4FEFCFC801D1
:1009A000DF91CF911F910F91FF90EF90DF90CF904B
:1009B00008956115710581F0DB010D900020E9F7C4
:1009C000AD0141505109461B570BDC01ED91FC91E3
:1009D0000280F381E02D099480E090E008950C946A
:1009E000D904DC01ED91FC910190F081E02D099496
:1009F0006AE171E00C94D9048F929F92AF92BF92FA
:100A0000CF92DF92EF92FF920F931F93CF93DF93DA
:100A1000CDB7DEB7A1970FB6F894DEBF0FBECDBF3E
:100A20007C01C42EE52FCB01D22E19A221E02D1579
:100A300010F02AE0D22E8E010F5D1F4F8D2C912CCD
:100A4000A12CB12C6C2D7E2FA50194010E94C8050C
:100A50008C2DD29E80191124015011098A3014F472
:100A6000805D01C0895CF801808321153105410555
:100A7000510521F0C22EE32FCA01E4CFB801C7010E
:100A80000E94D904A1960FB6F894DEBF0FBECDBF69
:100A9000DF91CF911F910F91FF90EF90DF90CF905A
:100AA000BF90AF909F908F900895CF92DF92EF927A
:100AB000FF920F931F93CF93DF93EC016A017B01A9
:100AC0002115310579F4E881F9810190F081E02D5B
:100AD000642FDF91CF911F910F91FF90EF90DF90E6
:100AE000CF9009942A303105E9F477FF1AC06DE2FE
:100AF0000E94F1048C0144275527BA014C195D0965
:100B00006E097F092AE0CE010E94FC04800F911F2C
:100B1000DF91CF911F910F91FF90EF90DF90CF90D9
:100B200008952AE0B701A601CE01DF91CF911F9170
:100B30000F91FF90EF90DF90CF900C94FC040F93F7
:100B40001F93CF93DF93EC019A01AB01662757FD0A
:100B50006095762F0E9455058C01CE010E94F80405
:100B6000800F911FDF91CF911F910F9108950895EC
:100B70000E94DE030E94B7050E947801C0E0D0E029
:100B80000E9495012097E1F30E940000F9CF08959B
:100B9000A1E21A2EAA1BBB1BFD010DC0AA1FBB1F81
:100BA000EE1FFF1FA217B307E407F50720F0A21BF3
:100BB000B30BE40BF50B661F771F881F991F1A9460
:100BC00069F760957095809590959B01AC01BD018A
:100BD000CF010895EE0FFF1F0590F491E02D0994C9
:040BE000F894FFCFB7
:100BE4004C6573206E627220646573207061733A81
:100BF4002000000000003803B1040D0A006E616E8D
:0C0C040000696E66006F7666002E00002E
:00000001FF
